{
  "address": "0x4ecdBACEBC451879294bcC2756f3FE6D47dE9c45",
  "abi": [
    {
      "stateMutability": "payable",
      "type": "fallback"
    },
    {
      "inputs": [
        {
          "internalType": "uint256",
          "name": "_id",
          "type": "uint256"
        }
      ],
      "name": "brandNewRegistry",
      "outputs": [],
      "stateMutability": "payable",
      "type": "function"
    },
    {
      "inputs": [
        {
          "internalType": "string",
          "name": "_name",
          "type": "string"
        }
      ],
      "name": "newCompany",
      "outputs": [],
      "stateMutability": "payable",
      "type": "function"
    },
    {
      "inputs": [
        {
          "internalType": "string",
          "name": "_name",
          "type": "string"
        },
        {
          "internalType": "uint256",
          "name": "_totalSupply",
          "type": "uint256"
        },
        {
          "internalType": "string",
          "name": "_description",
          "type": "string"
        },
        {
          "internalType": "uint256",
          "name": "_price",
          "type": "uint256"
        }
      ],
      "name": "newPart",
      "outputs": [],
      "stateMutability": "nonpayable",
      "type": "function"
    },
    {
      "inputs": [
        {
          "internalType": "address",
          "name": "_address",
          "type": "address"
        }
      ],
      "name": "viewCompany",
      "outputs": [
        {
          "components": [
            {
              "internalType": "uint256",
              "name": "companyId",
              "type": "uint256"
            },
            {
              "internalType": "string",
              "name": "companyName",
              "type": "string"
            },
            {
              "internalType": "uint256",
              "name": "companyTimestamp",
              "type": "uint256"
            },
            {
              "internalType": "uint256[]",
              "name": "partsArray",
              "type": "uint256[]"
            }
          ],
          "internalType": "struct AstroVerify.Company",
          "name": "",
          "type": "tuple"
        }
      ],
      "stateMutability": "view",
      "type": "function"
    },
    {
      "inputs": [
        {
          "internalType": "uint256",
          "name": "_id",
          "type": "uint256"
        }
      ],
      "name": "viewPart",
      "outputs": [
        {
          "components": [
            {
              "internalType": "uint256",
              "name": "partId",
              "type": "uint256"
            },
            {
              "internalType": "uint256",
              "name": "price",
              "type": "uint256"
            },
            {
              "internalType": "address",
              "name": "companyAddress",
              "type": "address"
            },
            {
              "internalType": "string",
              "name": "partName",
              "type": "string"
            },
            {
              "internalType": "uint256",
              "name": "counter",
              "type": "uint256"
            },
            {
              "internalType": "uint256",
              "name": "totalSupply",
              "type": "uint256"
            },
            {
              "internalType": "string",
              "name": "description",
              "type": "string"
            },
            {
              "internalType": "uint256",
              "name": "partTimestamp",
              "type": "uint256"
            },
            {
              "internalType": "address[]",
              "name": "allOwners",
              "type": "address[]"
            }
          ],
          "internalType": "struct AstroVerify.Part",
          "name": "",
          "type": "tuple"
        }
      ],
      "stateMutability": "view",
      "type": "function"
    },
    {
      "inputs": [
        {
          "internalType": "string",
          "name": "_serialNo",
          "type": "string"
        }
      ],
      "name": "viewRegistry",
      "outputs": [
        {
          "components": [
            {
              "internalType": "uint256",
              "name": "partId",
              "type": "uint256"
            },
            {
              "internalType": "string",
              "name": "serialNo",
              "type": "string"
            },
            {
              "internalType": "uint256",
              "name": "registryTimestamp",
              "type": "uint256"
            }
          ],
          "internalType": "struct AstroVerify.Registry",
          "name": "",
          "type": "tuple"
        }
      ],
      "stateMutability": "view",
      "type": "function"
    },
    {
      "stateMutability": "payable",
      "type": "receive"
    }
  ],
  "transactionHash": "0xf606792764ccae71dbb70fd3107a070d80f3a1028a78cb03b258a9e89dbb91f5",
  "args": [],
  "numDeployments": 1,
  "solcInputHash": "08768a2f6df3e2dbb02095f6314de062",
  "bytecode": "0x608060405260008055600060015534801561001957600080fd5b50611a25806100296000396000f3fe6080604052600436106100595760003560e01c80633b59a45e1461006257806358a956cc1461008b57806367ce6125146100c85780636c0201ed14610105578063f1e6fe8714610142578063fb6593941461015e57610060565b3661006057005b005b34801561006e57600080fd5b5061008960048036038101906100849190610f31565b61017a565b005b34801561009757600080fd5b506100b260048036038101906100ad9190610fd0565b610395565b6040516100bf91906110f7565b60405180910390f35b3480156100d457600080fd5b506100ef60048036038101906100ea9190611119565b610473565b6040516100fc9190611309565b60405180910390f35b34801561011157600080fd5b5061012c60048036038101906101279190611357565b6106db565b604051610139919061149d565b60405180910390f35b61015c60048036038101906101579190610fd0565b610832565b005b61017860048036038101906101739190611119565b610975565b005b6001600081548092919061018d906114ee565b9190505550600154600360006001548152602001908152602001600020600001819055503360036000600154815260200190815260200160002060020160006101000a81548173ffffffffffffffffffffffffffffffffffffffff021916908373ffffffffffffffffffffffffffffffffffffffff16021790555083600360006001548152602001908152602001600020600301908161022d9190611742565b5082600360006001548152602001908152602001600020600501819055508160036000600154815260200190815260200160002060060190816102709190611742565b5042600360006001548152602001908152602001600020600701819055508060036000600154815260200190815260200160002060010181905550600360006001548152602001908152602001600020600801339080600181540180825580915050600190039060005260206000200160009091909190916101000a81548173ffffffffffffffffffffffffffffffffffffffff021916908373ffffffffffffffffffffffffffffffffffffffff160217905550600260003373ffffffffffffffffffffffffffffffffffffffff1673ffffffffffffffffffffffffffffffffffffffff168152602001908152602001600020600301600154908060018154018082558091505060019003906000526020600020016000909190919091505550505050565b61039d610cf6565b6004826040516103ad9190611850565b9081526020016040518091039020604051806060016040529081600082015481526020016001820180546103e090611565565b80601f016020809104026020016040519081016040528092919081815260200182805461040c90611565565b80156104595780601f1061042e57610100808354040283529160200191610459565b820191906000526020600020905b81548152906001019060200180831161043c57829003601f168201915b505050505081526020016002820154815250509050919050565b61047b610d17565b600360008381526020019081526020016000206040518061012001604052908160008201548152602001600182015481526020016002820160009054906101000a900473ffffffffffffffffffffffffffffffffffffffff1673ffffffffffffffffffffffffffffffffffffffff1673ffffffffffffffffffffffffffffffffffffffff16815260200160038201805461051490611565565b80601f016020809104026020016040519081016040528092919081815260200182805461054090611565565b801561058d5780601f106105625761010080835404028352916020019161058d565b820191906000526020600020905b81548152906001019060200180831161057057829003601f168201915b5050505050815260200160048201548152602001600582015481526020016006820180546105ba90611565565b80601f01602080910402602001604051908101604052809291908181526020018280546105e690611565565b80156106335780601f1061060857610100808354040283529160200191610633565b820191906000526020600020905b81548152906001019060200180831161061657829003601f168201915b5050505050815260200160078201548152602001600882018054806020026020016040519081016040528092919081815260200182805480156106cb57602002820191906000526020600020905b8160009054906101000a900473ffffffffffffffffffffffffffffffffffffffff1673ffffffffffffffffffffffffffffffffffffffff1681526020019060010190808311610681575b5050505050815250509050919050565b6106e3610d79565b600260008373ffffffffffffffffffffffffffffffffffffffff1673ffffffffffffffffffffffffffffffffffffffff1681526020019081526020016000206040518060800160405290816000820154815260200160018201805461074790611565565b80601f016020809104026020016040519081016040528092919081815260200182805461077390611565565b80156107c05780601f10610795576101008083540402835291602001916107c0565b820191906000526020600020905b8154815290600101906020018083116107a357829003601f168201915b50505050508152602001600282015481526020016003820180548060200260200160405190810160405280929190818152602001828054801561082257602002820191906000526020600020905b81548152602001906001019080831161080e575b5050505050815250509050919050565b66b1a2bc2ec50000341161087b576040517f08c379a0000000000000000000000000000000000000000000000000000000008152600401610872906118c4565b60405180910390fd5b60008081548092919061088d906114ee565b9190505550600054600260003373ffffffffffffffffffffffffffffffffffffffff1673ffffffffffffffffffffffffffffffffffffffff1681526020019081526020016000206000018190555080600260003373ffffffffffffffffffffffffffffffffffffffff1673ffffffffffffffffffffffffffffffffffffffff168152602001908152602001600020600101908161092a9190611742565b5042600260003373ffffffffffffffffffffffffffffffffffffffff1673ffffffffffffffffffffffffffffffffffffffff1681526020019081526020016000206002018190555050565b600360008281526020019081526020016000206001015434116109cd576040517f08c379a00000000000000000000000000000000000000000000000000000000081526004016109c490611930565b60405180910390fd5b6000610a0060036000848152602001908152602001600020600401600081546109f5906114ee565b919050819055610ad5565b90506000610a0d83610ad5565b604051602001610a1d9190611976565b604051602081830303815290604052905060008183604051602001610a4392919061199c565b604051602081830303815290604052905080600482604051610a659190611850565b90815260200160405180910390206001019081610a829190611742565b5083600482604051610a949190611850565b90815260200160405180910390206000018190555042600482604051610aba9190611850565b90815260200160405180910390206002018190555050505050565b606060006001610ae484610ba3565b01905060008167ffffffffffffffff811115610b0357610b02610dd0565b5b6040519080825280601f01601f191660200182016040528015610b355781602001600182028036833780820191505090505b509050600082602001820190505b600115610b98578080600190039150507f3031323334353637383961626364656600000000000000000000000000000000600a86061a8153600a8581610b8c57610b8b6119c0565b5b04945060008503610b43575b819350505050919050565b600080600090507a184f03e93ff9f4daa797ed6e38ed64bf6a1f0100000000000000008310610c01577a184f03e93ff9f4daa797ed6e38ed64bf6a1f0100000000000000008381610bf757610bf66119c0565b5b0492506040810190505b6d04ee2d6d415b85acef81000000008310610c3e576d04ee2d6d415b85acef81000000008381610c3457610c336119c0565b5b0492506020810190505b662386f26fc100008310610c6d57662386f26fc100008381610c6357610c626119c0565b5b0492506010810190505b6305f5e1008310610c96576305f5e1008381610c8c57610c8b6119c0565b5b0492506008810190505b6127108310610cbb576127108381610cb157610cb06119c0565b5b0492506004810190505b60648310610cde5760648381610cd457610cd36119c0565b5b0492506002810190505b600a8310610ced576001810190505b80915050919050565b60405180606001604052806000815260200160608152602001600081525090565b6040518061012001604052806000815260200160008152602001600073ffffffffffffffffffffffffffffffffffffffff1681526020016060815260200160008152602001600081526020016060815260200160008152602001606081525090565b6040518060800160405280600081526020016060815260200160008152602001606081525090565b6000604051905090565b600080fd5b600080fd5b600080fd5b600080fd5b6000601f19601f8301169050919050565b7f4e487b7100000000000000000000000000000000000000000000000000000000600052604160045260246000fd5b610e0882610dbf565b810181811067ffffffffffffffff82111715610e2757610e26610dd0565b5b80604052505050565b6000610e3a610da1565b9050610e468282610dff565b919050565b600067ffffffffffffffff821115610e6657610e65610dd0565b5b610e6f82610dbf565b9050602081019050919050565b82818337600083830152505050565b6000610e9e610e9984610e4b565b610e30565b905082815260208101848484011115610eba57610eb9610dba565b5b610ec5848285610e7c565b509392505050565b600082601f830112610ee257610ee1610db5565b5b8135610ef2848260208601610e8b565b91505092915050565b6000819050919050565b610f0e81610efb565b8114610f1957600080fd5b50565b600081359050610f2b81610f05565b92915050565b60008060008060808587031215610f4b57610f4a610dab565b5b600085013567ffffffffffffffff811115610f6957610f68610db0565b5b610f7587828801610ecd565b9450506020610f8687828801610f1c565b935050604085013567ffffffffffffffff811115610fa757610fa6610db0565b5b610fb387828801610ecd565b9250506060610fc487828801610f1c565b91505092959194509250565b600060208284031215610fe657610fe5610dab565b5b600082013567ffffffffffffffff81111561100457611003610db0565b5b61101084828501610ecd565b91505092915050565b61102281610efb565b82525050565b600081519050919050565b600082825260208201905092915050565b60005b83811015611062578082015181840152602081019050611047565b60008484015250505050565b600061107982611028565b6110838185611033565b9350611093818560208601611044565b61109c81610dbf565b840191505092915050565b60006060830160008301516110bf6000860182611019565b50602083015184820360208601526110d7828261106e565b91505060408301516110ec6040860182611019565b508091505092915050565b6000602082019050818103600083015261111181846110a7565b905092915050565b60006020828403121561112f5761112e610dab565b5b600061113d84828501610f1c565b91505092915050565b600073ffffffffffffffffffffffffffffffffffffffff82169050919050565b600061117182611146565b9050919050565b61118181611166565b82525050565b600081519050919050565b600082825260208201905092915050565b6000819050602082019050919050565b60006111bf8383611178565b60208301905092915050565b6000602082019050919050565b60006111e382611187565b6111ed8185611192565b93506111f8836111a3565b8060005b8381101561122957815161121088826111b3565b975061121b836111cb565b9250506001810190506111fc565b5085935050505092915050565b60006101208301600083015161124f6000860182611019565b5060208301516112626020860182611019565b5060408301516112756040860182611178565b506060830151848203606086015261128d828261106e565b91505060808301516112a26080860182611019565b5060a08301516112b560a0860182611019565b5060c083015184820360c08601526112cd828261106e565b91505060e08301516112e260e0860182611019565b506101008301518482036101008601526112fc82826111d8565b9150508091505092915050565b600060208201905081810360008301526113238184611236565b905092915050565b61133481611166565b811461133f57600080fd5b50565b6000813590506113518161132b565b92915050565b60006020828403121561136d5761136c610dab565b5b600061137b84828501611342565b91505092915050565b600081519050919050565b600082825260208201905092915050565b6000819050602082019050919050565b60006113bc8383611019565b60208301905092915050565b6000602082019050919050565b60006113e082611384565b6113ea818561138f565b93506113f5836113a0565b8060005b8381101561142657815161140d88826113b0565b9750611418836113c8565b9250506001810190506113f9565b5085935050505092915050565b600060808301600083015161144b6000860182611019565b5060208301518482036020860152611463828261106e565b91505060408301516114786040860182611019565b506060830151848203606086015261149082826113d5565b9150508091505092915050565b600060208201905081810360008301526114b78184611433565b905092915050565b7f4e487b7100000000000000000000000000000000000000000000000000000000600052601160045260246000fd5b60006114f982610efb565b91507fffffffffffffffffffffffffffffffffffffffffffffffffffffffffffffffff820361152b5761152a6114bf565b5b600182019050919050565b7f4e487b7100000000000000000000000000000000000000000000000000000000600052602260045260246000fd5b6000600282049050600182168061157d57607f821691505b6020821081036115905761158f611536565b5b50919050565b60008190508160005260206000209050919050565b60006020601f8301049050919050565b600082821b905092915050565b6000600883026115f87fffffffffffffffffffffffffffffffffffffffffffffffffffffffffffffffff826115bb565b61160286836115bb565b95508019841693508086168417925050509392505050565b6000819050919050565b600061163f61163a61163584610efb565b61161a565b610efb565b9050919050565b6000819050919050565b61165983611624565b61166d61166582611646565b8484546115c8565b825550505050565b600090565b611682611675565b61168d818484611650565b505050565b5b818110156116b1576116a660008261167a565b600181019050611693565b5050565b601f8211156116f6576116c781611596565b6116d0846115ab565b810160208510156116df578190505b6116f36116eb856115ab565b830182611692565b50505b505050565b600082821c905092915050565b6000611719600019846008026116fb565b1980831691505092915050565b60006117328383611708565b9150826002028217905092915050565b61174b82611028565b67ffffffffffffffff81111561176457611763610dd0565b5b61176e8254611565565b6117798282856116b5565b600060209050601f8311600181146117ac576000841561179a578287015190505b6117a48582611726565b86555061180c565b601f1984166117ba86611596565b60005b828110156117e2578489015182556001820191506020850194506020810190506117bd565b868310156117ff57848901516117fb601f891682611708565b8355505b6001600288020188555050505b505050505050565b600081905092915050565b600061182a82611028565b6118348185611814565b9350611844818560208601611044565b80840191505092915050565b600061185c828461181f565b915081905092915050565b600082825260208201905092915050565b7f6661696c65640000000000000000000000000000000000000000000000000000600082015250565b60006118ae600683611867565b91506118b982611878565b602082019050919050565b600060208201905081810360008301526118dd816118a1565b9050919050565b7f6e6f7420656e6f7567682066756e647300000000000000000000000000000000600082015250565b600061191a601083611867565b9150611925826118e4565b602082019050919050565b600060208201905081810360008301526119498161190d565b9050919050565b7f5f00000000000000000000000000000000000000000000000000000000000000815250565b6000611982828461181f565b915061198d82611950565b60018201915081905092915050565b60006119a8828561181f565b91506119b4828461181f565b91508190509392505050565b7f4e487b7100000000000000000000000000000000000000000000000000000000600052601260045260246000fdfea2646970667358221220e255f5e9957fa735ba6a2617684a180c7814f65cba4bf17ed3016da8442200a664736f6c63430008130033",
  "devdoc": {
    "kind": "dev",
    "methods": {},
    "version": 1
  },
  "userdoc": {
    "kind": "user",
    "methods": {},
    "version": 1
  },
  "storageLayout": {
    "storage": [
      {
        "astId": 1205,
        "contract": "contracts/AstroVerify.sol:AstroVerify",
        "label": "company_id",
        "offset": 0,
        "slot": "0",
        "type": "t_uint256"
      },
      {
        "astId": 1208,
        "contract": "contracts/AstroVerify.sol:AstroVerify",
        "label": "part_id",
        "offset": 0,
        "slot": "1",
        "type": "t_uint256"
      },
      {
        "astId": 1250,
        "contract": "contracts/AstroVerify.sol:AstroVerify",
        "label": "companyMapping",
        "offset": 0,
        "slot": "2",
        "type": "t_mapping(t_address,t_struct(Company)1218_storage)"
      },
      {
        "astId": 1255,
        "contract": "contracts/AstroVerify.sol:AstroVerify",
        "label": "partMapping",
        "offset": 0,
        "slot": "3",
        "type": "t_mapping(t_uint256,t_struct(Part)1238_storage)"
      },
      {
        "astId": 1260,
        "contract": "contracts/AstroVerify.sol:AstroVerify",
        "label": "registryMapping",
        "offset": 0,
        "slot": "4",
        "type": "t_mapping(t_string_memory_ptr,t_struct(Registry)1245_storage)"
      }
    ],
    "types": {
      "t_address": {
        "encoding": "inplace",
        "label": "address",
        "numberOfBytes": "20"
      },
      "t_array(t_address)dyn_storage": {
        "base": "t_address",
        "encoding": "dynamic_array",
        "label": "address[]",
        "numberOfBytes": "32"
      },
      "t_array(t_uint256)dyn_storage": {
        "base": "t_uint256",
        "encoding": "dynamic_array",
        "label": "uint256[]",
        "numberOfBytes": "32"
      },
      "t_mapping(t_address,t_struct(Company)1218_storage)": {
        "encoding": "mapping",
        "key": "t_address",
        "label": "mapping(address => struct AstroVerify.Company)",
        "numberOfBytes": "32",
        "value": "t_struct(Company)1218_storage"
      },
      "t_mapping(t_string_memory_ptr,t_struct(Registry)1245_storage)": {
        "encoding": "mapping",
        "key": "t_string_memory_ptr",
        "label": "mapping(string => struct AstroVerify.Registry)",
        "numberOfBytes": "32",
        "value": "t_struct(Registry)1245_storage"
      },
      "t_mapping(t_uint256,t_struct(Part)1238_storage)": {
        "encoding": "mapping",
        "key": "t_uint256",
        "label": "mapping(uint256 => struct AstroVerify.Part)",
        "numberOfBytes": "32",
        "value": "t_struct(Part)1238_storage"
      },
      "t_string_memory_ptr": {
        "encoding": "bytes",
        "label": "string",
        "numberOfBytes": "32"
      },
      "t_string_storage": {
        "encoding": "bytes",
        "label": "string",
        "numberOfBytes": "32"
      },
      "t_struct(Company)1218_storage": {
        "encoding": "inplace",
        "label": "struct AstroVerify.Company",
        "members": [
          {
            "astId": 1210,
            "contract": "contracts/AstroVerify.sol:AstroVerify",
            "label": "companyId",
            "offset": 0,
            "slot": "0",
            "type": "t_uint256"
          },
          {
            "astId": 1212,
            "contract": "contracts/AstroVerify.sol:AstroVerify",
            "label": "companyName",
            "offset": 0,
            "slot": "1",
            "type": "t_string_storage"
          },
          {
            "astId": 1214,
            "contract": "contracts/AstroVerify.sol:AstroVerify",
            "label": "companyTimestamp",
            "offset": 0,
            "slot": "2",
            "type": "t_uint256"
          },
          {
            "astId": 1217,
            "contract": "contracts/AstroVerify.sol:AstroVerify",
            "label": "partsArray",
            "offset": 0,
            "slot": "3",
            "type": "t_array(t_uint256)dyn_storage"
          }
        ],
        "numberOfBytes": "128"
      },
      "t_struct(Part)1238_storage": {
        "encoding": "inplace",
        "label": "struct AstroVerify.Part",
        "members": [
          {
            "astId": 1220,
            "contract": "contracts/AstroVerify.sol:AstroVerify",
            "label": "partId",
            "offset": 0,
            "slot": "0",
            "type": "t_uint256"
          },
          {
            "astId": 1222,
            "contract": "contracts/AstroVerify.sol:AstroVerify",
            "label": "price",
            "offset": 0,
            "slot": "1",
            "type": "t_uint256"
          },
          {
            "astId": 1224,
            "contract": "contracts/AstroVerify.sol:AstroVerify",
            "label": "companyAddress",
            "offset": 0,
            "slot": "2",
            "type": "t_address"
          },
          {
            "astId": 1226,
            "contract": "contracts/AstroVerify.sol:AstroVerify",
            "label": "partName",
            "offset": 0,
            "slot": "3",
            "type": "t_string_storage"
          },
          {
            "astId": 1228,
            "contract": "contracts/AstroVerify.sol:AstroVerify",
            "label": "counter",
            "offset": 0,
            "slot": "4",
            "type": "t_uint256"
          },
          {
            "astId": 1230,
            "contract": "contracts/AstroVerify.sol:AstroVerify",
            "label": "totalSupply",
            "offset": 0,
            "slot": "5",
            "type": "t_uint256"
          },
          {
            "astId": 1232,
            "contract": "contracts/AstroVerify.sol:AstroVerify",
            "label": "description",
            "offset": 0,
            "slot": "6",
            "type": "t_string_storage"
          },
          {
            "astId": 1234,
            "contract": "contracts/AstroVerify.sol:AstroVerify",
            "label": "partTimestamp",
            "offset": 0,
            "slot": "7",
            "type": "t_uint256"
          },
          {
            "astId": 1237,
            "contract": "contracts/AstroVerify.sol:AstroVerify",
            "label": "allOwners",
            "offset": 0,
            "slot": "8",
            "type": "t_array(t_address)dyn_storage"
          }
        ],
        "numberOfBytes": "288"
      },
      "t_struct(Registry)1245_storage": {
        "encoding": "inplace",
        "label": "struct AstroVerify.Registry",
        "members": [
          {
            "astId": 1240,
            "contract": "contracts/AstroVerify.sol:AstroVerify",
            "label": "partId",
            "offset": 0,
            "slot": "0",
            "type": "t_uint256"
          },
          {
            "astId": 1242,
            "contract": "contracts/AstroVerify.sol:AstroVerify",
            "label": "serialNo",
            "offset": 0,
            "slot": "1",
            "type": "t_string_storage"
          },
          {
            "astId": 1244,
            "contract": "contracts/AstroVerify.sol:AstroVerify",
            "label": "registryTimestamp",
            "offset": 0,
            "slot": "2",
            "type": "t_uint256"
          }
        ],
        "numberOfBytes": "96"
      },
      "t_uint256": {
        "encoding": "inplace",
        "label": "uint256",
        "numberOfBytes": "32"
      }
    }
  }
}