{
  "address": "0xE4d816a80B572FA7Fd2304120c1C6AD08ae6e7e1",
  "abi": [
    {
      "stateMutability": "payable",
      "type": "fallback"
    },
    {
      "inputs": [],
      "name": "company_id",
      "outputs": [
        {
          "internalType": "uint256",
          "name": "",
          "type": "uint256"
        }
      ],
      "stateMutability": "view",
      "type": "function"
    },
    {
      "inputs": [
        {
          "internalType": "string",
          "name": "_name",
          "type": "string"
        }
      ],
      "name": "newCompany",
      "outputs": [],
      "stateMutability": "payable",
      "type": "function"
    },
    {
      "inputs": [
        {
          "internalType": "string",
          "name": "_name",
          "type": "string"
        },
        {
          "internalType": "uint256",
          "name": "_totalSupply",
          "type": "uint256"
        },
        {
          "internalType": "string",
          "name": "_description",
          "type": "string"
        },
        {
          "internalType": "uint256",
          "name": "_price",
          "type": "uint256"
        },
        {
          "internalType": "string",
          "name": "_imageUrl",
          "type": "string"
        }
      ],
      "name": "newPart",
      "outputs": [],
      "stateMutability": "nonpayable",
      "type": "function"
    },
    {
      "inputs": [
        {
          "internalType": "uint256",
          "name": "_id",
          "type": "uint256"
        }
      ],
      "name": "newRegistry",
      "outputs": [],
      "stateMutability": "payable",
      "type": "function"
    },
    {
      "inputs": [],
      "name": "part_id",
      "outputs": [
        {
          "internalType": "uint256",
          "name": "",
          "type": "uint256"
        }
      ],
      "stateMutability": "view",
      "type": "function"
    },
    {
      "inputs": [
        {
          "internalType": "address",
          "name": "_address",
          "type": "address"
        }
      ],
      "name": "viewCompany",
      "outputs": [
        {
          "components": [
            {
              "internalType": "uint256",
              "name": "companyId",
              "type": "uint256"
            },
            {
              "internalType": "string",
              "name": "companyName",
              "type": "string"
            },
            {
              "internalType": "uint256",
              "name": "companyTimestamp",
              "type": "uint256"
            },
            {
              "internalType": "uint256[]",
              "name": "partsArray",
              "type": "uint256[]"
            }
          ],
          "internalType": "struct AstroVerify.Company",
          "name": "",
          "type": "tuple"
        }
      ],
      "stateMutability": "view",
      "type": "function"
    },
    {
      "inputs": [
        {
          "internalType": "uint256",
          "name": "_id",
          "type": "uint256"
        }
      ],
      "name": "viewPart",
      "outputs": [
        {
          "components": [
            {
              "internalType": "uint256",
              "name": "partId",
              "type": "uint256"
            },
            {
              "internalType": "uint256",
              "name": "price",
              "type": "uint256"
            },
            {
              "internalType": "address",
              "name": "companyAddress",
              "type": "address"
            },
            {
              "internalType": "string",
              "name": "partName",
              "type": "string"
            },
            {
              "internalType": "uint256",
              "name": "counter",
              "type": "uint256"
            },
            {
              "internalType": "uint256",
              "name": "totalSupply",
              "type": "uint256"
            },
            {
              "internalType": "string",
              "name": "description",
              "type": "string"
            },
            {
              "internalType": "uint256",
              "name": "partTimestamp",
              "type": "uint256"
            },
            {
              "internalType": "string",
              "name": "imageUrl",
              "type": "string"
            }
          ],
          "internalType": "struct AstroVerify.Part",
          "name": "",
          "type": "tuple"
        }
      ],
      "stateMutability": "view",
      "type": "function"
    },
    {
      "inputs": [
        {
          "internalType": "string",
          "name": "_serialNo",
          "type": "string"
        }
      ],
      "name": "viewRegistry",
      "outputs": [
        {
          "components": [
            {
              "internalType": "uint256",
              "name": "partId",
              "type": "uint256"
            },
            {
              "internalType": "string",
              "name": "serialNo",
              "type": "string"
            },
            {
              "internalType": "uint256",
              "name": "registryTimestamp",
              "type": "uint256"
            },
            {
              "internalType": "address",
              "name": "owner",
              "type": "address"
            }
          ],
          "internalType": "struct AstroVerify.Registry",
          "name": "",
          "type": "tuple"
        }
      ],
      "stateMutability": "view",
      "type": "function"
    },
    {
      "stateMutability": "payable",
      "type": "receive"
    }
  ],
  "transactionHash": "0xf158da65351111868c09d51068cda1e7b0e5e2f5fb2ae2b81a50802258513a4c",
  "args": [],
  "numDeployments": 3,
  "solcInputHash": "254df6dac8ea2fb7deca26469a5db6f9",
  "bytecode": "0x608060405260008055600060015534801561001957600080fd5b50611d66806100296000396000f3fe60806040526004361061007f5760003560e01c80636c0201ed1161004e5780636c0201ed1461014957806376cb62bf14610186578063c2ad1b1d146101b1578063f1e6fe87146101da57610086565b806321c9af561461008857806358a956cc146100b357806360b1b0ee146100f057806367ce61251461010c57610086565b3661008657005b005b34801561009457600080fd5b5061009d6101f6565b6040516100aa919061101f565b60405180910390f35b3480156100bf57600080fd5b506100da60048036038101906100d59190611194565b6101fc565b6040516100e7919061130f565b60405180910390f35b61010a6004803603810190610105919061135d565b610330565b005b34801561011857600080fd5b50610133600480360381019061012e919061135d565b610648565b604051610140919061145d565b60405180910390f35b34801561015557600080fd5b50610170600480360381019061016b91906114ab565b6108b4565b60405161017d91906115f1565b60405180910390f35b34801561019257600080fd5b5061019b610a0b565b6040516101a8919061101f565b60405180910390f35b3480156101bd57600080fd5b506101d860048036038101906101d39190611613565b610a11565b005b6101f460048036038101906101ef9190611194565b610bda565b005b60015481565b610204610f3e565b600482604051610214919061171e565b90815260200160405180910390206040518060800160405290816000820154815260200160018201805461024790611764565b80601f016020809104026020016040519081016040528092919081815260200182805461027390611764565b80156102c05780601f10610295576101008083540402835291602001916102c0565b820191906000526020600020905b8154815290600101906020018083116102a357829003601f168201915b50505050508152602001600282015481526020016003820160009054906101000a900473ffffffffffffffffffffffffffffffffffffffff1673ffffffffffffffffffffffffffffffffffffffff1673ffffffffffffffffffffffffffffffffffffffff16815250509050919050565b60036000828152602001908152602001600020600501546003600083815260200190815260200160002060040154111561039f576040517f08c379a0000000000000000000000000000000000000000000000000000000008152600401610396906117f2565b60405180910390fd5b600360008281526020019081526020016000206001015434116103f7576040517f08c379a00000000000000000000000000000000000000000000000000000000081526004016103ee9061185e565b60405180910390fd5b60006003600083815260200190815260200160002060020160009054906101000a900473ffffffffffffffffffffffffffffffffffffffff1690506000610465600360008581526020019081526020016000206004016000815461045a906118ad565b919050819055610d1d565b9050600061047284610d1d565b604051602001610482919061191b565b6040516020818303038152906040529050600081836040516020016104a8929190611941565b6040516020818303038152906040529050806004826040516104ca919061171e565b908152602001604051809103902060010190816104e79190611b11565b50846004826040516104f9919061171e565b9081526020016040518091039020600001819055504260048260405161051f919061171e565b90815260200160405180910390206002018190555033600482604051610545919061171e565b908152602001604051809103902060030160006101000a81548173ffffffffffffffffffffffffffffffffffffffff021916908373ffffffffffffffffffffffffffffffffffffffff16021790555060008473ffffffffffffffffffffffffffffffffffffffff16346040516105ba90611c14565b60006040518083038185875af1925050503d80600081146105f7576040519150601f19603f3d011682016040523d82523d6000602084013e6105fc565b606091505b5050905080610640576040517f08c379a000000000000000000000000000000000000000000000000000000000815260040161063790611c75565b60405180910390fd5b505050505050565b610650610f7c565b600360008381526020019081526020016000206040518061012001604052908160008201548152602001600182015481526020016002820160009054906101000a900473ffffffffffffffffffffffffffffffffffffffff1673ffffffffffffffffffffffffffffffffffffffff1673ffffffffffffffffffffffffffffffffffffffff1681526020016003820180546106e990611764565b80601f016020809104026020016040519081016040528092919081815260200182805461071590611764565b80156107625780601f1061073757610100808354040283529160200191610762565b820191906000526020600020905b81548152906001019060200180831161074557829003601f168201915b50505050508152602001600482015481526020016005820154815260200160068201805461078f90611764565b80601f01602080910402602001604051908101604052809291908181526020018280546107bb90611764565b80156108085780601f106107dd57610100808354040283529160200191610808565b820191906000526020600020905b8154815290600101906020018083116107eb57829003601f168201915b505050505081526020016007820154815260200160088201805461082b90611764565b80601f016020809104026020016040519081016040528092919081815260200182805461085790611764565b80156108a45780601f10610879576101008083540402835291602001916108a4565b820191906000526020600020905b81548152906001019060200180831161088757829003601f168201915b5050505050815250509050919050565b6108bc610fde565b600260008373ffffffffffffffffffffffffffffffffffffffff1673ffffffffffffffffffffffffffffffffffffffff1681526020019081526020016000206040518060800160405290816000820154815260200160018201805461092090611764565b80601f016020809104026020016040519081016040528092919081815260200182805461094c90611764565b80156109995780601f1061096e57610100808354040283529160200191610999565b820191906000526020600020905b81548152906001019060200180831161097c57829003601f168201915b5050505050815260200160028201548152602001600382018054806020026020016040519081016040528092919081815260200182805480156109fb57602002820191906000526020600020905b8154815260200190600101908083116109e7575b5050505050815250509050919050565b60005481565b60016000815480929190610a24906118ad565b9190505550600154600360006001548152602001908152602001600020600001819055503360036000600154815260200190815260200160002060020160006101000a81548173ffffffffffffffffffffffffffffffffffffffff021916908373ffffffffffffffffffffffffffffffffffffffff160217905550846003600060015481526020019081526020016000206003019081610ac49190611b11565b508360036000600154815260200190815260200160002060050181905550826003600060015481526020019081526020016000206006019081610b079190611b11565b5042600360006001548152602001908152602001600020600701819055508160036000600154815260200190815260200160002060010181905550806003600060015481526020019081526020016000206008019081610b679190611b11565b50600260003373ffffffffffffffffffffffffffffffffffffffff1673ffffffffffffffffffffffffffffffffffffffff16815260200190815260200160002060030160015490806001815401808255809150506001900390600052602060002001600090919091909150555050505050565b66b1a2bc2ec500003411610c23576040517f08c379a0000000000000000000000000000000000000000000000000000000008152600401610c1a90611ce1565b60405180910390fd5b600080815480929190610c35906118ad565b9190505550600054600260003373ffffffffffffffffffffffffffffffffffffffff1673ffffffffffffffffffffffffffffffffffffffff1681526020019081526020016000206000018190555080600260003373ffffffffffffffffffffffffffffffffffffffff1673ffffffffffffffffffffffffffffffffffffffff1681526020019081526020016000206001019081610cd29190611b11565b5042600260003373ffffffffffffffffffffffffffffffffffffffff1673ffffffffffffffffffffffffffffffffffffffff1681526020019081526020016000206002018190555050565b606060006001610d2c84610deb565b01905060008167ffffffffffffffff811115610d4b57610d4a611069565b5b6040519080825280601f01601f191660200182016040528015610d7d5781602001600182028036833780820191505090505b509050600082602001820190505b600115610de0578080600190039150507f3031323334353637383961626364656600000000000000000000000000000000600a86061a8153600a8581610dd457610dd3611d01565b5b04945060008503610d8b575b819350505050919050565b600080600090507a184f03e93ff9f4daa797ed6e38ed64bf6a1f0100000000000000008310610e49577a184f03e93ff9f4daa797ed6e38ed64bf6a1f0100000000000000008381610e3f57610e3e611d01565b5b0492506040810190505b6d04ee2d6d415b85acef81000000008310610e86576d04ee2d6d415b85acef81000000008381610e7c57610e7b611d01565b5b0492506020810190505b662386f26fc100008310610eb557662386f26fc100008381610eab57610eaa611d01565b5b0492506010810190505b6305f5e1008310610ede576305f5e1008381610ed457610ed3611d01565b5b0492506008810190505b6127108310610f03576127108381610ef957610ef8611d01565b5b0492506004810190505b60648310610f265760648381610f1c57610f1b611d01565b5b0492506002810190505b600a8310610f35576001810190505b80915050919050565b6040518060800160405280600081526020016060815260200160008152602001600073ffffffffffffffffffffffffffffffffffffffff1681525090565b6040518061012001604052806000815260200160008152602001600073ffffffffffffffffffffffffffffffffffffffff1681526020016060815260200160008152602001600081526020016060815260200160008152602001606081525090565b6040518060800160405280600081526020016060815260200160008152602001606081525090565b6000819050919050565b61101981611006565b82525050565b60006020820190506110346000830184611010565b92915050565b6000604051905090565b600080fd5b600080fd5b600080fd5b600080fd5b6000601f19601f8301169050919050565b7f4e487b7100000000000000000000000000000000000000000000000000000000600052604160045260246000fd5b6110a182611058565b810181811067ffffffffffffffff821117156110c0576110bf611069565b5b80604052505050565b60006110d361103a565b90506110df8282611098565b919050565b600067ffffffffffffffff8211156110ff576110fe611069565b5b61110882611058565b9050602081019050919050565b82818337600083830152505050565b6000611137611132846110e4565b6110c9565b90508281526020810184848401111561115357611152611053565b5b61115e848285611115565b509392505050565b600082601f83011261117b5761117a61104e565b5b813561118b848260208601611124565b91505092915050565b6000602082840312156111aa576111a9611044565b5b600082013567ffffffffffffffff8111156111c8576111c7611049565b5b6111d484828501611166565b91505092915050565b6111e681611006565b82525050565b600081519050919050565b600082825260208201905092915050565b60005b8381101561122657808201518184015260208101905061120b565b60008484015250505050565b600061123d826111ec565b61124781856111f7565b9350611257818560208601611208565b61126081611058565b840191505092915050565b600073ffffffffffffffffffffffffffffffffffffffff82169050919050565b60006112968261126b565b9050919050565b6112a68161128b565b82525050565b60006080830160008301516112c460008601826111dd565b50602083015184820360208601526112dc8282611232565b91505060408301516112f160408601826111dd565b506060830151611304606086018261129d565b508091505092915050565b6000602082019050818103600083015261132981846112ac565b905092915050565b61133a81611006565b811461134557600080fd5b50565b60008135905061135781611331565b92915050565b60006020828403121561137357611372611044565b5b600061138184828501611348565b91505092915050565b6000610120830160008301516113a360008601826111dd565b5060208301516113b660208601826111dd565b5060408301516113c9604086018261129d565b50606083015184820360608601526113e18282611232565b91505060808301516113f660808601826111dd565b5060a083015161140960a08601826111dd565b5060c083015184820360c08601526114218282611232565b91505060e083015161143660e08601826111dd565b506101008301518482036101008601526114508282611232565b9150508091505092915050565b60006020820190508181036000830152611477818461138a565b905092915050565b6114888161128b565b811461149357600080fd5b50565b6000813590506114a58161147f565b92915050565b6000602082840312156114c1576114c0611044565b5b60006114cf84828501611496565b91505092915050565b600081519050919050565b600082825260208201905092915050565b6000819050602082019050919050565b600061151083836111dd565b60208301905092915050565b6000602082019050919050565b6000611534826114d8565b61153e81856114e3565b9350611549836114f4565b8060005b8381101561157a5781516115618882611504565b975061156c8361151c565b92505060018101905061154d565b5085935050505092915050565b600060808301600083015161159f60008601826111dd565b50602083015184820360208601526115b78282611232565b91505060408301516115cc60408601826111dd565b50606083015184820360608601526115e48282611529565b9150508091505092915050565b6000602082019050818103600083015261160b8184611587565b905092915050565b600080600080600060a0868803121561162f5761162e611044565b5b600086013567ffffffffffffffff81111561164d5761164c611049565b5b61165988828901611166565b955050602061166a88828901611348565b945050604086013567ffffffffffffffff81111561168b5761168a611049565b5b61169788828901611166565b93505060606116a888828901611348565b925050608086013567ffffffffffffffff8111156116c9576116c8611049565b5b6116d588828901611166565b9150509295509295909350565b600081905092915050565b60006116f8826111ec565b61170281856116e2565b9350611712818560208601611208565b80840191505092915050565b600061172a82846116ed565b915081905092915050565b7f4e487b7100000000000000000000000000000000000000000000000000000000600052602260045260246000fd5b6000600282049050600182168061177c57607f821691505b60208210810361178f5761178e611735565b5b50919050565b600082825260208201905092915050565b7f6d6178206c696d69742065786365656465640000000000000000000000000000600082015250565b60006117dc601283611795565b91506117e7826117a6565b602082019050919050565b6000602082019050818103600083015261180b816117cf565b9050919050565b7f6e6f7420656e6f7567682066756e647300000000000000000000000000000000600082015250565b6000611848601083611795565b915061185382611812565b602082019050919050565b600060208201905081810360008301526118778161183b565b9050919050565b7f4e487b7100000000000000000000000000000000000000000000000000000000600052601160045260246000fd5b60006118b882611006565b91507fffffffffffffffffffffffffffffffffffffffffffffffffffffffffffffffff82036118ea576118e961187e565b5b600182019050919050565b7f5f00000000000000000000000000000000000000000000000000000000000000815250565b600061192782846116ed565b9150611932826118f5565b60018201915081905092915050565b600061194d82856116ed565b915061195982846116ed565b91508190509392505050565b60008190508160005260206000209050919050565b60006020601f8301049050919050565b600082821b905092915050565b6000600883026119c77fffffffffffffffffffffffffffffffffffffffffffffffffffffffffffffffff8261198a565b6119d1868361198a565b95508019841693508086168417925050509392505050565b6000819050919050565b6000611a0e611a09611a0484611006565b6119e9565b611006565b9050919050565b6000819050919050565b611a28836119f3565b611a3c611a3482611a15565b848454611997565b825550505050565b600090565b611a51611a44565b611a5c818484611a1f565b505050565b5b81811015611a8057611a75600082611a49565b600181019050611a62565b5050565b601f821115611ac557611a9681611965565b611a9f8461197a565b81016020851015611aae578190505b611ac2611aba8561197a565b830182611a61565b50505b505050565b600082821c905092915050565b6000611ae860001984600802611aca565b1980831691505092915050565b6000611b018383611ad7565b9150826002028217905092915050565b611b1a826111ec565b67ffffffffffffffff811115611b3357611b32611069565b5b611b3d8254611764565b611b48828285611a84565b600060209050601f831160018114611b7b5760008415611b69578287015190505b611b738582611af5565b865550611bdb565b601f198416611b8986611965565b60005b82811015611bb157848901518255600182019150602085019450602081019050611b8c565b86831015611bce5784890151611bca601f891682611ad7565b8355505b6001600288020188555050505b505050505050565b600081905092915050565b50565b6000611bfe600083611be3565b9150611c0982611bee565b600082019050919050565b6000611c1f82611bf1565b9150819050919050565b7f4661696c656420746f2073656e64204574686572000000000000000000000000600082015250565b6000611c5f601483611795565b9150611c6a82611c29565b602082019050919050565b60006020820190508181036000830152611c8e81611c52565b9050919050565b7f6661696c65640000000000000000000000000000000000000000000000000000600082015250565b6000611ccb600683611795565b9150611cd682611c95565b602082019050919050565b60006020820190508181036000830152611cfa81611cbe565b9050919050565b7f4e487b7100000000000000000000000000000000000000000000000000000000600052601260045260246000fdfea26469706673582212206857eea694e988970933be0711eb2df60f17fb9c49679b344daeb7a9c4eb531564736f6c63430008130033",
  "devdoc": {
    "kind": "dev",
    "methods": {},
    "version": 1
  },
  "userdoc": {
    "kind": "user",
    "methods": {},
    "version": 1
  },
  "storageLayout": {
    "storage": [
      {
        "astId": 1205,
        "contract": "contracts/AstroVerify.sol:AstroVerify",
        "label": "company_id",
        "offset": 0,
        "slot": "0",
        "type": "t_uint256"
      },
      {
        "astId": 1208,
        "contract": "contracts/AstroVerify.sol:AstroVerify",
        "label": "part_id",
        "offset": 0,
        "slot": "1",
        "type": "t_uint256"
      },
      {
        "astId": 1251,
        "contract": "contracts/AstroVerify.sol:AstroVerify",
        "label": "companyMapping",
        "offset": 0,
        "slot": "2",
        "type": "t_mapping(t_address,t_struct(Company)1218_storage)"
      },
      {
        "astId": 1256,
        "contract": "contracts/AstroVerify.sol:AstroVerify",
        "label": "partMapping",
        "offset": 0,
        "slot": "3",
        "type": "t_mapping(t_uint256,t_struct(Part)1237_storage)"
      },
      {
        "astId": 1261,
        "contract": "contracts/AstroVerify.sol:AstroVerify",
        "label": "registryMapping",
        "offset": 0,
        "slot": "4",
        "type": "t_mapping(t_string_memory_ptr,t_struct(Registry)1246_storage)"
      }
    ],
    "types": {
      "t_address": {
        "encoding": "inplace",
        "label": "address",
        "numberOfBytes": "20"
      },
      "t_array(t_uint256)dyn_storage": {
        "base": "t_uint256",
        "encoding": "dynamic_array",
        "label": "uint256[]",
        "numberOfBytes": "32"
      },
      "t_mapping(t_address,t_struct(Company)1218_storage)": {
        "encoding": "mapping",
        "key": "t_address",
        "label": "mapping(address => struct AstroVerify.Company)",
        "numberOfBytes": "32",
        "value": "t_struct(Company)1218_storage"
      },
      "t_mapping(t_string_memory_ptr,t_struct(Registry)1246_storage)": {
        "encoding": "mapping",
        "key": "t_string_memory_ptr",
        "label": "mapping(string => struct AstroVerify.Registry)",
        "numberOfBytes": "32",
        "value": "t_struct(Registry)1246_storage"
      },
      "t_mapping(t_uint256,t_struct(Part)1237_storage)": {
        "encoding": "mapping",
        "key": "t_uint256",
        "label": "mapping(uint256 => struct AstroVerify.Part)",
        "numberOfBytes": "32",
        "value": "t_struct(Part)1237_storage"
      },
      "t_string_memory_ptr": {
        "encoding": "bytes",
        "label": "string",
        "numberOfBytes": "32"
      },
      "t_string_storage": {
        "encoding": "bytes",
        "label": "string",
        "numberOfBytes": "32"
      },
      "t_struct(Company)1218_storage": {
        "encoding": "inplace",
        "label": "struct AstroVerify.Company",
        "members": [
          {
            "astId": 1210,
            "contract": "contracts/AstroVerify.sol:AstroVerify",
            "label": "companyId",
            "offset": 0,
            "slot": "0",
            "type": "t_uint256"
          },
          {
            "astId": 1212,
            "contract": "contracts/AstroVerify.sol:AstroVerify",
            "label": "companyName",
            "offset": 0,
            "slot": "1",
            "type": "t_string_storage"
          },
          {
            "astId": 1214,
            "contract": "contracts/AstroVerify.sol:AstroVerify",
            "label": "companyTimestamp",
            "offset": 0,
            "slot": "2",
            "type": "t_uint256"
          },
          {
            "astId": 1217,
            "contract": "contracts/AstroVerify.sol:AstroVerify",
            "label": "partsArray",
            "offset": 0,
            "slot": "3",
            "type": "t_array(t_uint256)dyn_storage"
          }
        ],
        "numberOfBytes": "128"
      },
      "t_struct(Part)1237_storage": {
        "encoding": "inplace",
        "label": "struct AstroVerify.Part",
        "members": [
          {
            "astId": 1220,
            "contract": "contracts/AstroVerify.sol:AstroVerify",
            "label": "partId",
            "offset": 0,
            "slot": "0",
            "type": "t_uint256"
          },
          {
            "astId": 1222,
            "contract": "contracts/AstroVerify.sol:AstroVerify",
            "label": "price",
            "offset": 0,
            "slot": "1",
            "type": "t_uint256"
          },
          {
            "astId": 1224,
            "contract": "contracts/AstroVerify.sol:AstroVerify",
            "label": "companyAddress",
            "offset": 0,
            "slot": "2",
            "type": "t_address"
          },
          {
            "astId": 1226,
            "contract": "contracts/AstroVerify.sol:AstroVerify",
            "label": "partName",
            "offset": 0,
            "slot": "3",
            "type": "t_string_storage"
          },
          {
            "astId": 1228,
            "contract": "contracts/AstroVerify.sol:AstroVerify",
            "label": "counter",
            "offset": 0,
            "slot": "4",
            "type": "t_uint256"
          },
          {
            "astId": 1230,
            "contract": "contracts/AstroVerify.sol:AstroVerify",
            "label": "totalSupply",
            "offset": 0,
            "slot": "5",
            "type": "t_uint256"
          },
          {
            "astId": 1232,
            "contract": "contracts/AstroVerify.sol:AstroVerify",
            "label": "description",
            "offset": 0,
            "slot": "6",
            "type": "t_string_storage"
          },
          {
            "astId": 1234,
            "contract": "contracts/AstroVerify.sol:AstroVerify",
            "label": "partTimestamp",
            "offset": 0,
            "slot": "7",
            "type": "t_uint256"
          },
          {
            "astId": 1236,
            "contract": "contracts/AstroVerify.sol:AstroVerify",
            "label": "imageUrl",
            "offset": 0,
            "slot": "8",
            "type": "t_string_storage"
          }
        ],
        "numberOfBytes": "288"
      },
      "t_struct(Registry)1246_storage": {
        "encoding": "inplace",
        "label": "struct AstroVerify.Registry",
        "members": [
          {
            "astId": 1239,
            "contract": "contracts/AstroVerify.sol:AstroVerify",
            "label": "partId",
            "offset": 0,
            "slot": "0",
            "type": "t_uint256"
          },
          {
            "astId": 1241,
            "contract": "contracts/AstroVerify.sol:AstroVerify",
            "label": "serialNo",
            "offset": 0,
            "slot": "1",
            "type": "t_string_storage"
          },
          {
            "astId": 1243,
            "contract": "contracts/AstroVerify.sol:AstroVerify",
            "label": "registryTimestamp",
            "offset": 0,
            "slot": "2",
            "type": "t_uint256"
          },
          {
            "astId": 1245,
            "contract": "contracts/AstroVerify.sol:AstroVerify",
            "label": "owner",
            "offset": 0,
            "slot": "3",
            "type": "t_address"
          }
        ],
        "numberOfBytes": "128"
      },
      "t_uint256": {
        "encoding": "inplace",
        "label": "uint256",
        "numberOfBytes": "32"
      }
    }
  }
}